:020000040800F2
:1000000000000220ED250008951D0008A31D000832
:10001000A91D0008AF1D0008B51D00080000000064
:10002000000000000000000000000000BB1D0008F0
:10003000C91D000800000000D71D0008E51D0008CC
:100040003D2600083D2600083D2600083D26000804
:100050003D2600083D2600083D2600083D260008F4
:100060003D2600083D2600083D2600083D260008E4
:100070003D2600083D2600083D2600083D260008D4
:100080003D2600083D2600083D260008F11D000819
:10009000051E0008191E00083D2600083D26000820
:1000A0003D2600083D2600082D1E00083D260008BC
:1000B0003D2600083D2600083D2600083D26000894
:1000C0003D2600083D2600083D2600083D26000884
:1000D0003D260008411E00083D2600083D26000878
:1000E000551E00083D2600083D2600083D26000854
:1000F000651E00083D2600083D2600083D26000834
:100100003D2600083D2600083D2600083D26000843
:100110003D2600083D2600083D2600083D26000833
:100120003D2600083D2600083D2600083D26000823
:100130003D26000800000000000000003D260008E9
:100140003D2600083D2600083D2600083D26000803
:100150003D2600083D2600083D2600083D260008F3
:100160003D2600083D2600083D2600083D260008E3
:100170003D2600083D2600083D260008000000003E
:10018000000000003D260008000000000000000004
:100190003D26000800000000000000003D26000889
:1001A0000000000000000000000000003D260008E4
:1001B0003D2600083D2600083D2600083D26000893
:0401C0003D260008D0
:1001D00010B5054C237833B9044B13B10448AFF381
:1001E00000800123237010BD0402002000000000E5
:1001F00038B6000808B5034B1BB103490348AFF3F9
:10020000008008BD000000000802002038B6000889
:10021000034613F8012B002AFBD1181A0138704746
:1002200001F0FF01102A2BDB10F0070F08D010F8A7
:10023000013B013A8B422DD010F0070F42B3F6D1AB
:10024000F0B441EA012141EA014122F007047FF0C4
:1002500000070023F0E80256083C85EA010586EA1B
:10026000010685FA47F5A3FA87F586FA47F6A5FA57
:1002700087F68EB9EED1F0BC01F0FF0102F0070263
:1002800032B110F8013B013A83EA010313B1F8D10E
:100290000020704701387047002D06BF35460338EF
:1002A000073815F0010F07D1013015F4807F02BF28
:1002B000013015F4C03F0130F0BC0138704700BF79
:1002C00081F0004102E000BF83F0004330B54FEA07
:1002D00041044FEA430594EA050F08BF90EA020F74
:1002E0001FBF54EA000C55EA020C7FEA645C7FEA07
:1002F000655C00F0E2804FEA5454D4EB5555B8BF2A
:100300006D420CDD2C4480EA020281EA030382EA9A
:10031000000083EA010180EA020281EA0303362D2C
:1003200088BF30BD11F0004F4FEA01314FF4801CFF
:100330004CEA113102D0404261EB410113F0004F11
:100340004FEA03334CEA133302D0524263EB4303C8
:1003500094EA050F00F0A780A4F10104D5F1200E66
:100360000DDB02FA0EFC22FA05F2801841F10001C1
:1003700003FA0EF2801843FA05F359410EE0A5F195
:1003800020050EF1200E012A03FA0EFC28BF4CF0C6
:10039000020C43FA05F3C01851EBE37101F000457C
:1003A00007D54FF0000EDCF1000C7EEB00006EEB89
:1003B0000101B1F5801F1BD3B1F5001F0CD3490813
:1003C0005FEA30004FEA3C0C04F101044FEA44526A
:1003D00012F5800F80F09A80BCF1004F08BF5FEAF1
:1003E000500C50F1000041EB045141EA050130BDD1
:1003F0005FEA4C0C404141EB010111F4801FA4F174
:100400000104E9D191F0000F04BF01460020B1FAC8
:1004100081F308BF2033A3F10B03B3F120020CDA00
:100420000C3208DD02F1140CC2F10C0201FA0CF0DE
:1004300021FA02F10CE002F11402D8BFC2F1200C43
:1004400001FA02F120FA0CFCDCBF41EA0C019040F9
:10045000E41AA2BF01EB0451294330BD6FEA040442
:100460001F3C1CDA0C340EDC04F11404C4F120022D
:1004700020FA04F001FA02F340EA030021FA04F33F
:1004800045EA030130BDC4F10C04C4F1200220FA96
:1004900002F001FA04F340EA0300294630BD21FAD4
:1004A00004F0294630BD94F0000F83F4801306BF9A
:1004B00081F480110134013D4EE77FEA645C18BF8E
:1004C0007FEA655C29D094EA050F08BF90EA020F25
:1004D00005D054EA000C04BF1946104630BD91EA1D
:1004E000030F1EBF0021002030BD5FEA545C05D120
:1004F0004000494128BF41F0004130BD14F580045F
:100500003CBF01F5801130BD01F0004545F0FE41D2
:1005100041F470014FF0000030BD7FEA645C1ABF07
:10052000194610467FEA655C1CBF0B46024650EA3E
:10053000013406BF52EA033591EA030F41F400216A
:1005400030BD00BF90F0000F04BF0021704730B5F0
:100550004FF4806404F132044FF000054FF00001C5
:1005600050E700BF90F0000F04BF0021704730B586
:100570004FF4806404F1320410F0004548BF40425B
:100580004FF000013EE700BF42004FEAE2014FEAB0
:1005900031014FEA02701FBF12F07F4393F07F4F8B
:1005A00081F06051704732F07F4208BF704793F08E
:1005B0007F4F04BF41F40021704730B54FF46074A1
:1005C00001F0004521F000411CE700BF50EA0102A4
:1005D00008BF704730B54FF000050AE050EA01024D
:1005E00008BF704730B511F0004502D5404261EBBD
:1005F00041014FF4806404F132045FEA915C3FF4FE
:10060000D8AE4FF003025FEADC0C18BF03325FEA9A
:10061000DC0C18BF033202EBDC02C2F1200300FA4B
:1006200003FC20FA02F001FA03FE40EA0E0021FA70
:1006300002F11444BDE600BF70B54FF0FF0C4CF45E
:10064000E06C1CEA11541DBF1CEA135594EA0C0F10
:1006500095EA0C0F00F0DEF82C4481EA030621EA4B
:100660004C5123EA4C5350EA013518BF52EA033586
:1006700041F4801143F4801338D0A0FB02CE4FF038
:100680000005E1FB02E506F00042E0FB03E54FF068
:100690000006E1FB03569CF0000F18BF4EF0010E60
:1006A000A4F1FF04B6F5007F64F5407404D25FEA5C
:1006B0004E0E6D4146EB060642EAC62141EA55510F
:1006C0004FEAC52040EA5E504FEACE2EB4F1FD0C51
:1006D00088BFBCF5E06F1ED8BEF1004F08BF5FEACF
:1006E000500E50F1000041EB045170BD06F0004681
:1006F00046EA010140EA020081EA0301B4EB5C042E
:10070000C2BFD4EB0C0541EA045170BD41F4801125
:100710004FF0000E013C00F3AB8014F1360FDEBF4A
:10072000002001F0004170BDC4F10004203C35DA26
:100730000C341BDC04F11404C4F1200500FA05F3A9
:1007400020FA04F001FA05F240EA020001F000424A
:1007500021F0004110EBD37021FA04F642EB0601C0
:100760005EEA430E08BF20EAD37070BDC4F10C04EA
:10077000C4F1200500FA04F320FA05F001FA04F2AE
:1007800040EA020001F0004110EBD37041F100019A
:100790005EEA430E08BF20EAD37070BDC4F12005A5
:1007A00000FA05F24EEA020E20FA04F301FA05F20D
:1007B00043EA020321FA04F001F0004121FA04F2B5
:1007C00020EA020000EBD3705EEA430E08BF20EA85
:1007D000D37070BD94F0000F0FD101F000464000BF
:1007E00041EB010111F4801F08BF013CF7D041EA41
:1007F000060195F0000F18BF704703F00046520045
:1008000043EB030313F4801F08BF013DF7D043EA15
:100810000603704794EA0C0F0CEA135518BF95EACB
:100820000C0F0CD050EA410618BF52EA4306D1D152
:1008300081EA030101F000414FF0000070BD50EA71
:10084000410606BF1046194652EA430619D094EAFB
:100850000C0F02D150EA013613D195EA0C0F05D1E5
:1008600052EA03361CBF104619460AD181EA030139
:1008700001F0004141F0FE4141F470014FF00000F1
:1008800070BD41F0FE4141F4780170BD70B54FF08C
:10089000FF0C4CF4E06C1CEA11541DBF1CEA13550C
:1008A00094EA0C0F95EA0C0F00F0A7F8A4EB0504EE
:1008B00081EA030E52EA03354FEA013100F08880E5
:1008C0004FEA03334FF0805545EA131343EA1263AE
:1008D0004FEA022245EA111545EA10654FEA002663
:1008E0000EF000419D4208BF964244F1FD0404F51C
:1008F000407402D25B084FEA3202B61A65EB030578
:100900005B084FEA32024FF480104FF4002CB6EB34
:10091000020E75EB030E22BFB61A754640EA0C00B4
:100920005B084FEA3202B6EB020E75EB030E22BFF4
:10093000B61A754640EA5C005B084FEA3202B6EB35
:10094000020E75EB030E22BFB61A754640EA9C00F4
:100950005B084FEA3202B6EB020E75EB030E22BFC4
:10096000B61A754640EADC0055EA060E18D04FEA82
:10097000051545EA16754FEA06164FEAC30343EA22
:1009800052734FEAC2025FEA1C1CC0D111F4801FEF
:100990000BD141EA00014FF000004FF0004CB6E7E8
:1009A00011F4801F04BF01430020B4F1FD0C88BF87
:1009B000BCF5E06F3FF6AFAEB5EB030C04BFB6EB92
:1009C000020C5FEA500C50F1000041EB045170BD85
:1009D0000EF0004E4EEA113114EB5C04C2BFD4EBB2
:1009E0000C0541EA045170BD41F480114FF0000E36
:1009F000013C90E645EA060E8DE60CEA135594EAB2
:100A00000C0F08BF95EA0C0F3FF43BAF94EA0C0FB4
:100A10000AD150EA01347FF434AF95EA0C0F7FF429
:100A200025AF104619462CE795EA0C0F06D152EA7D
:100A300003353FF4FDAE1046194622E750EA410661
:100A400018BF52EA43067FF4C5AE50EA41047FF472
:100A50000DAF52EA43057FF4EBAE12E74FF0FF3CD7
:100A600006E000BF4FF0010C02E000BF4FF0010CA8
:100A70004DF804CD4FEA410C7FEA6C5C4FEA430C21
:100A800018BF7FEA6C5C1BD001B050EA410C0CBF70
:100A900052EA430C91EA030F02BF90EA020F0020D2
:100AA000704710F1000F91EA030F58BF994208BF39
:100AB00090422CBFD8176FEAE37040F001007047F6
:100AC0004FEA410C7FEA6C5C02D150EA013C07D14D
:100AD0004FEA430C7FEA6C5CD6D152EA033CD3D098
:100AE0005DF8040B704700BF8446104662468C4692
:100AF0001946634600E000BF01B5FFF7B7FF0028C5
:100B000048BF10F1000F01BD4DF808EDFFF7F4FFED
:100B10000CBF012000205DF808FB00BF4DF808ED78
:100B2000FFF7EAFF34BF012000205DF808FB00BF9B
:100B30004DF808EDFFF7E0FF94BF012000205DF8BD
:100B400008FB00BF4DF808EDFFF7CEFF94BF012072
:100B500000205DF808FB00BF4DF808EDFFF7C4FF6B
:100B600034BF012000205DF808FB00BF4FEA410CB4
:100B70007FEA6C5C02D150EA013C0AD14FEA430C97
:100B80007FEA6C5C02D152EA033C02D14FF00000D4
:100B900070474FF0010070474FEA410212F5001212
:100BA00015D211D56FF47873B3EB625212D94FEAB4
:100BB000C12343F0004343EA505311F0004F23FA9E
:100BC00002F018BF404270474FF00000704750EAF3
:100BD000013005D111F0004008BF6FF000407047B0
:100BE0004FF00000704700BF4FEA4102B2F1E0430E
:100BF00024BFB3F5001CDCF1FE5C0DD901F0004C04
:100C00004FEAC0024CEA5070B2F1004F40EB830053
:100C100008BF20F00100704711F0804F21D113F17F
:100C20003872BCBF01F00040704741F480114FEAB8
:100C30005252C2F11802C2F1200C10FA0CF320FA41
:100C400002F018BF40F001004FEAC1234FEAD3235E
:100C500003FA0CFC40EA0C0023FA02F34FEA4303C8
:100C6000CCE77FEA625307D150EA01331EBF4FF051
:100C7000FE4040F44000704701F0004040F0FE406C
:100C800040F40000704700BF53B94AB9002908BFBB
:100C900000281CBF4FF0FF314FF0FF3000F072B959
:100CA000ADF1080C6DE904CE00F006F8DDF804E0C3
:100CB000DDE9022304B070472DE9F047089E0446A1
:100CC0008846002B4BD18A42154667D9B2FA82F288
:100CD0004AB1C2F1200701FA02F320FA07F7954062
:100CE00047EA030894404FEA154E230CB8FBFEF781
:100CF0001FFA85FC0EFB178843EA084307FB0CF13B
:100D0000994209D9EB1807F1FF3080F01B81994215
:100D100040F21881023F2B445B1AA4B2B3FBFEF0F1
:100D20000EFB103344EA034400FB0CFCA44509D934
:100D30002C1900F1FF3380F00781A44540F20481B3
:100D400002382C4440EA0740A4EB0C0400271EB1F3
:100D5000D4400023C6E900433946BDE8F0878B4202
:100D600009D9002E00F0EB800027C6E900013846C3
:100D70003946BDE8F087B3FA83F7002F47D18B429D
:100D800002D3824200F2FA80841A61EB030301204D
:100D90009846002EE0D0C6E90048DDE702B9FFDE44
:100DA000B2FA82F2002A40F08F80491B4FEA154EBA
:100DB0001FFA85F80127B1FBFEFC230C0EFB1C116A
:100DC00043EA014308FB0CF1994207D9EB180CF1F7
:100DD000FF3002D2994200F2CD808446591AA3B264
:100DE000B1FBFEF00EFB101443EA044408FB00F8CC
:100DF000A04507D92C1900F1FF3302D2A04500F21B
:100E0000B6801846A4EB080440EA0C409FE7C7F1FF
:100E1000200CBB4022FA0CFE4EEA030E01FA07F446
:100E200020FA0CF521FA0CF34FEA1E482543B3FBD8
:100E3000F8F92C0C08FB19331FFA8EFA44EA034325
:100E400009FB0AF49C4202FA07F200FA07F10BD9F7
:100E50001EEB030309F1FF3080F087809C4240F2D3
:100E60008480A9F1020973441B1BADB2B3FBF8F0F7
:100E700008FB103345EA034400FB0AFAA24508D9EF
:100E80001EEB040400F1FF336BD2A24569D902388E
:100E9000744440EA0940A0FB0289A4EB0A044C45D3
:100EA000C2464B4654D351D0002E69D0B1EB0A054F
:100EB00064EB030404FA0CFCFD40FC404CEA05051D
:100EC000C6E90054002747E7C2F1200320FA03F7E0
:100ED000954001FA02F021FA03F34FEA154E384328
:100EE000010CB3FBFEF71FFA85F80EFB173341EA3E
:100EF000034107FB08F38B4204FA02F407D969188F
:100F000007F1FF3C2FD28B422DD9023F2944CB1A47
:100F100081B2B3FBFEF00EFB103341EA034100FB4C
:100F200008F38B4207D9691800F1FF3C17D28B42B6
:100F300015D902382944C91A40EA07473BE7374622
:100F4000304609E70746E7E61846FBE64145ABD2DF
:100F5000B8EB020A69EB0E0201381346A4E76046BB
:100F6000E9E7184695E76746D1E781467CE702380E
:100F70002C4447E7ACF1020C2B442FE7384608E736
:100F80003746E9E6704700BF80B584B000AF3B4606
:100F900000221A605A609A60DA60214B214A1A6076
:100FA0001F4B4FF480325A601D4B00229A601C4B3D
:100FB00000221A611A4B00221A76194B002283F87C
:100FC0002020174B0022DA62154B174A9A62144B05
:100FD0000022DA60124B0122DA61114B002283F801
:100FE00030200F4B01225A610D4801F07BFB034674
:100FF000002B01D000F092FE0C4B3B6001237B6084
:101000000023BB603B461946054801F039FD034605
:10101000002B01D000F082FE00BF1037BD4680BD1E
:1010200074070020002001400100000F1200001092
:1010300080B485B000AF78607B681B680B4A934230
:101040000DD10023FB600A4B5B6C094A43F48073AB
:101050005364074B5B6C03F48073FB60FB6800BF59
:101060001437BD465DF8047B704700BF0020014087
:101070000038024080B500AF174B184A1A60164B73
:1010800004225A60144B00229A60134B0022DA604B
:10109000114B4FF450221A610F4B4FF4A0025A61CA
:1010A0000D4B00221A760C4B00225A760A4B002276
:1010B0009A76094B0122DA76074B00221A77064B03
:1010C00000225A77044801F009FF0346002B01D0A3
:1010D00000F024FE00BF80BDBC070020006400407B
:1010E00080B58AB000AF786007F1140300221A605F
:1010F0005A609A60DA601A617B681B68254A9342DD
:1011000044D100233B61244B1B6C234A43F0007302
:101110001364214B1B6C03F000733B613B6900239C
:10112000FB601D4B1B6B1C4A43F0020313631A4BFD
:101130001B6B03F00203FB60FB684FF440737B61A1
:101140000223BB610023FB6103233B6209237B6213
:1011500007F114031946114802F02AFE002200216B
:10116000132002F0CCFD132002F0E5FD0022002147
:10117000142002F0C4FD142002F0DDFD0022002145
:10118000152002F0BCFD152002F0D5FD00BF283768
:10119000BD4680BD006400400038024000040240AB
:1011A00080B58AB000AF07F1140300221A605A60BC
:1011B0009A60DA601A6100233B61894B1B6B884A95
:1011C00043F004031363864B1B6B03F004033B6182
:1011D0003B690023FB60824B1B6B814A43F0800319
:1011E00013637F4B1B6B03F08003FB60FB680023E2
:1011F000BB607B4B1B6B7A4A43F001031363784B54
:101200001B6B03F00103BB60BB6800237B60744B66
:101210001B6B734A43F002031363714B1B6B03F0A8
:1012200002037B607B6800233B606D4B1B6B6C4A49
:1012300043F0080313636A4B1B6B03F008033B6026
:101240003B68002242F20601664802F05BFF002282
:101250003021654802F056FF00224CF241016348FC
:1012600002F050FF01220A21604802F04BFF42F2D7
:1012700006037B610123BB610023FB6100233B620A
:1012800007F114031946574802F092FD4DF2F97325
:101290007B610323BB610023FB6107F11403194643
:1012A000504802F085FD41F603137B610323BB61C7
:1012B0000023FB6107F1140319464B4802F078FD47
:1012C0000C237B610023BB610023FB6107F1140346
:1012D0001946454802F06CFD30237B610123BB6158
:1012E0000023FB6100233B6207F1140319463E48CB
:1012F00002F05EFD03237B610123BB610023FB61E0
:1013000000233B6207F114031946384802F050FDF0
:1013100043F294037B610323BB610023FB6107F16C
:1013200014031946314802F043FD4CF240037B613F
:101330000123BB610223FB6100233B6207F114031D
:1013400019462A4802F034FD4FF400437B61002324
:10135000BB610223FB6107F114031946224802F026
:1013600027FD4FF400637B61214BBB610123FB61CF
:1013700007F1140319461B4802F01AFD04237B6190
:101380000323BB610023FB6107F1140319461948CD
:1013900002F00EFD08237B611123BB610023FB617A
:1013A00000233B6207F114031946104802F000FDC8
:1013B00020237B610023BB610223FB6107F114033F
:1013C00019460A4802F0F4FC00220021282002F00D
:1013D00096FC282002F0AFFC00BF2837BD4680BD38
:1013E00000380240000802400000024000040240B1
:1013F00000003110000C024080B582B000AF0346FF
:10140000FB71FB79012B05D101220221064802F074
:1014100079FE04E000220221034802F073FE00BFBF
:101420000837BD4680BD00BF0008024080B582B0CD
:1014300000AF0346FB71FB79002B08D1114B322220
:101440001A6001221021104802F05CFE16E0FB79C0
:10145000012B08D10D4B32221A60012220210A48AB
:1014600002F050FE0AE0FB79022B07D1084B322232
:101470001A6001220421074802F044FE00BF083729
:10148000BD4680BD2402002000000240280200204A
:101490002C0200200008024080B483B000AF7860C6
:1014A000054B1B6823F00103034A136000BF0C3790
:1014B000BD465DF8047B70473802002080B483B0DD
:1014C00000AF7860054B1B6823F00203034A1360EA
:1014D00000BF0C37BD465DF8047B70473802002022
:1014E00080B483B000AF7860054B1B6823F0040321
:1014F000034A136000BF0C37BD465DF8047B70479C
:101500003802002080B58EB000AFF860B9607A6014
:101510003B603B68002B02D03B68042B47D13B6CFF
:101520000D2B09D83B6C7B620023BB620123FB625D
:101530003B68002B19D101E0FF2339E0BB684FEA7B
:10154000F3639BB23B61BB681A0A4FF6F873134012
:101550007B617B684FEAF3639BB2BB617B681A0ACD
:101560004FF6F8731340FB6111E0BB685B0B3B6106
:10157000BB68DB009BB243F004037B617B685B0BC1
:10158000BB617B68DB009BB243F00403FB617B6CB7
:101590003B6201233B633B6C7B6212237B6307F15D
:1015A00010031946F86801F095FD034600E0012399
:1015B00018463837BD4680BD80B58CB000AF786026
:1015C00039600020FFF732FF07F10C0307F1140226
:1015D0003968786801F07DFFFB69002B07D17B69D2
:1015E0009BB207F10C021146184605F061FD054B50
:1015F0001A683B681343034A136000BF3037BD4687
:1016000080BD00BF3C02002080B582B000AF786092
:1016100000217868FFF7D0FF00BF0837BD4680BDC6
:1016200080B582B000AF786001217868FFF7C4FF11
:1016300000BF0837BD4680BD80B582B000AF03460D
:10164000FB712B4B1B78002B29D02A4B1B6803F016
:101650001003002B47D1274B1B6843F01003254A8A
:101660001360FF23FB71244B1B68FA795A63012234
:101670004FF40041214802F045FD01224FF4804122
:101680001E4802F03FFD1C4B1B681B6803F0010362
:10169000002B28D10021184803F020FB23E0FB7920
:1016A000002B20D0134B1B6843F01003114A13602A
:1016B000114B1B68FA795A6301224FF400410F481D
:1016C00002F020FD01224FF480410C4802F01AFD87
:1016D000094B1B681B6803F00103002B03D1002199
:1016E000054803F0FBFA00BF0837BD4680BD00BFC8
:1016F000350200204002002024090020000402409E
:1017000080B582B000AF0346FB71FB79012B05D198
:1017100001220221064802F0F5FC04E00022022129
:10172000034802F0EFFC00BF0837BD4680BD00BF94
:101730000004024080B582B000AF0346FB71FB7924
:10174000012B10D100224021184802F0DBFC0122BD
:101750000821164802F0D6FC154B1B6843F0020323
:10176000134A13601DE0134B1B681B6803F0010351
:10177000002B16D10020FFF75FFF012240210B480C
:1017800002F0C0FC0120FFF737FE0A4B1B686FF028
:1017900001021A61074B1B6800225A62054803F0D8
:1017A00044FA00BF0837BD4680BD00BF00040240B8
:1017B00040020020E407002080B500AF4FF4006134
:1017C0000D4802F087FC0346002B09D10B4B1B6828
:1017D00043F00103094A1360012005F01BFC08E0F7
:1017E000064B1B6823F00103044A1360002005F038
:1017F00011FC00BF80BD00BF000802404002002075
:1018000080B582B000AF0346FB71FB79002B10D08E
:1018100001224FF400510E4802F074FC0D4B1A687F
:101820000C4B1B68D26ADA6308210A4803F056FAA7
:1018300009E000224FF40051054802F063FC082142
:10184000044803F089FA00BF0837BD4680BD00BFD9
:1018500000080240E408002080B582B000AF786044
:101860000B46FB700220FFF7E1FDFB789BB21A46A6
:101870007968064804F027FB0346002B01D10123B9
:1018800000E0002318460837BD4680BD64090020EB
:1018900080B584B002AF0346FB800F4B1B780D2B45
:1018A00015D8F9880C4B1B785A1CD0B20A4A107014
:1018B0001A46002301930092002340F2FF7207486A
:1018C000FFF720FE0346002B01D000F027FA00BFEF
:1018D0000837BD4680BD00BF34020020BC07002091
:1018E00080B58CB000AF78600B46FB704FF4FC63A2
:1018F000BB614FF4FC63FB6100233B6200237B620E
:10190000FB78BB62002387F82C3000237B617A6868
:1019100007F10C031068516803C307F1140307F1C2
:101920000C0207F118010B4801F0F8FC0346002BEC
:1019300007D1094B1A687B691343074A13600123D7
:1019400003E00120FFF772FD002318463037BD4643
:1019500080BD00BFBC0700203802002080B588B0E1
:1019600000AF0E4BBB600E4B3B610E4B3B600E4B12
:101970007B610E4B7B600E4BFB600E4BBB610E4BD5
:10198000FB613B46184605F01DFC03460A2B01D0BF
:1019900000F0C4F900BF2037BD4680BDE118000843
:1019A00001180008B9170008351700085918000871
:1019B00039160008011700089118000880B582B098
:1019C00000AF00237B604FF000033B60224800F033
:1019D000CDFE6421204800F0C2FF0346002B33D126
:1019E0001D4801F040F807EE900AF8EE677AC7ED5F
:1019F000007A194800F080FF184B1B8807EE903AD8
:101A0000B8EE677A164B1B8807EE903AF8EE677AC5
:101A100077EE677ADFED136A86EEA77A104B1B88A4
:101A200007EE903AF8EE677AD7ED006A76EEE77A3D
:101A300067EE277AB3EE0E7A77EE877AFDEEE77AD5
:101A400017EE903A7B6002E06FF488737B607B68EE
:101A500018460837BD4680BD740700202E7AFF1F48
:101A60002C7AFF1F0000A04280B582B000AF7860E2
:101A70007B680A4A93420DD10020FFF7BDFC00228B
:101A80000821074802F03EFB064B1B6823F00203C7
:101A9000044A136000BF0837BD4680BDE40700203C
:101AA000000402404002002080B500AF00F0C8FDF5
:101AB00000F05CF8FFF774FBFFF7DCFA00F09AFA2D
:101AC00000F0A2FB00F018FDFFF75EFA00F01AFA32
:101AD00000F0DCFA00F050FB00F02AFB08211E4861
:101AE00003F0FCF800224FF400511C4802F00AFBFE
:101AF0000020FFF781FCFFF761FF0346322B08DD72
:101B00000320FFF77DFE00BFFFF758FF0346322B8F
:101B1000FADC4FF4FD60FFF7BBFE114801F0BAFBA1
:101B20000346002B01D000F0F9F813210C4801F016
:101B3000E3FD0346002B01D000F0F0F8FFF70EFFA5
:101B4000FF20FFF779FD01220649074804F000FA5B
:101B500005F040FCFCE700BFE4080020000802405C
:101B6000BC070020200200206409002080B594B04A
:101B700000AF07F11C0334220021184607F004FDD2
:101B800007F1080300221A605A609A60DA601A614D
:101B900000237B602A4B1B6C294A43F0805313645B
:101BA000274B1B6C03F080537B607B6800233B60FA
:101BB000244B1B6823F44043224A43F480431360C0
:101BC000204B1B6803F440433B603B680123FB61EF
:101BD0004FF480333B6202237B634FF48003BB638B
:101BE0000423FB6354233B6402237B640223BB6412
:101BF0000223FB6407F11C03184602F091FD034623
:101C0000002B01D000F08AF80F23BB600223FB6099
:101C100000233B614FF480537B614FF48053BB61E1
:101C200007F108030221184602F0C4FA0346002B0C
:101C300001D000F073F800BF5037BD4680BD00BF33
:101C4000003802400070004080B582B000AF78607C
:101C50007B68084A934209D1074B1B78184605F068
:101C600001FA01220449034804F072F900BF083761
:101C7000BD4680BD640900202002002080B400AF72
:101C8000034B1B681846BD465DF8047B704700BFD8
:101C90003002002080B500AF1A4B1B680133194A8F
:101CA000136005F00DFC184B1B68002B05D10022BA
:101CB0001021164802F026FA04E0134B1B68013B82
:101CC000114A1360124B1B68002B05D10022202102
:101CD0000E4802F017FA04E00D4B1B68013B0C4A5A
:101CE00013600C4B1B68002B05D1002204210A480D
:101CF00002F008FA04E0074B1B68013B054A136039
:101D000000BF80BD300200202402002000000240FD
:101D1000280200202C0200200008024080B500AFFD
:101D20001021064802F007FA054B3C221A6000BF5A
:101D3000034B1B68002BFBD1F2E700BF0000024001
:101D40002402002080B483B000AF00237B60104BDE
:101D50005B6C0F4A43F4804353640D4B5B6C03F49C
:101D600080437B607B6800233B60094B1B6C084A07
:101D700043F080531364064B1B6C03F080533B60AD
:101D80003B6800BF0C37BD465DF8047B704700BF61
:101D90000038024080B400AF00BFBD465DF8047B50
:101DA000704780B400AFFEE780B400AFFEE780B4B8
:101DB00000AFFEE780B400AFFEE780B400AF00BF25
:101DC000BD465DF8047B704780B400AF00BFBD46E0
:101DD0005DF8047B704780B400AF00BFBD465DF87E
:101DE000047B704780B500AFFFF754FF00BF80BD94
:101DF00080B500AF024801F0A5FC00BF80BD00BF68
:101E0000BC07002080B500AF024801F09BFC00BF7A
:101E100080BD00BFBC07002080B500AF024801F0C4
:101E200091FC00BF80BD00BFBC07002080B500AFA3
:101E3000024803F01EF800BF80BD00BFA4080020C8
:101E400080B500AF024804F0D9F800BF80BD00BFE4
:101E50006409002080B500AF4FF4006002F086F9FD
:101E600000BF80BD80B500AF034803F002F803480F
:101E700002F0FFFF00BF80BDE407002064080020DF
:101E800080B584B000AF7860114B1B68002B02D185
:101E90000F4B104A1A600E4B1B68FB600C4B1A6804
:101EA0007B6813446A46934207D907F043FB024616
:101EB0000C2313604FF0FF3306E0054B1A687B6874
:101EC0001344034A1360FB6818461037BD4680BDB3
:101ED00044020020E009002080B400AF084BD3F892
:101EE0008830074A43F47003C2F88830044B4FF03F
:101EF00000629A6000BFBD465DF8047B704700BF7A
:101F000000ED00E080B58EB000AF07F1280300229D
:101F10001A605A609A60DA6007F1200300221A60A2
:101F20005A603B1D00221A605A609A60DA601A619A
:101F30005A619A612E4B4FF080421A602C4B42F24C
:101F4000CF025A602A4B00229A60294B42F20F724C
:101F5000DA60274B00221A61254B00229A6124483F
:101F600002F038FE0346002B01D0FFF7D7FE4FF4F6
:101F70008053BB6207F1280319461D4803F0E4F9BA
:101F80000346002B01D0FFF7C9FE194802F071FE8D
:101F90000346002B01D0FFF7C1FE00233B62002364
:101FA0007B6207F120031946114803F0E6FE034661
:101FB000002B01D0FFF7B2FE60237B6040F6C31315
:101FC000BB600023FB6000237B613B1D0822194698
:101FD000074803F0F3F80346002B01D0FFF79EFEFD
:101FE000034800F029FA00BF3837BD4680BD00BF66
:101FF000E408002080B586B000AF07F10803002296
:102000001A605A609A60DA603B4600221A605A6091
:102010001C4B1D4A1A601B4B2D225A60194B002283
:102020009A60184B0022DA60164B00221A61154B99
:1020300000229A61134802F0CDFD0346002B01D027
:10204000FFF76CFE4FF48053BB6007F1080319469D
:102050000C4803F079F90346002B01D0FFF75EFE30
:1020600000233B6000237B603B461946054803F094
:1020700084FE0346002B01D0FFF750FE00BF183747
:10208000BD4680BD240800200004004080B586B015
:1020900000AF07F1080300221A605A609A60DA6004
:1020A0003B4600221A605A601F4B204A1A601E4BA2
:1020B00042F2CF025A601C4B00229A601A4B42F245
:1020C0000F72DA60184B00221A61174B0F225A6107
:1020D000154B00229A61144802F07CFD0346002B48
:1020E00001D0FFF71BFE4FF48053BB6007F10803DC
:1020F00019460D4803F028F90346002B01D0FFF7DD
:102100000DFE00233B6000237B603B4619460648DA
:1021100003F033FE0346002B01D0FFF7FFFD00BFA5
:102120001837BD4680BD00BFE40700200004014011
:1021300080B500AF0E4B0F4A1A600D4B42F2CF0232
:102140005A600B4B00229A60094B40F2CF72DA6062
:10215000074B00221A61064B80229A61044802F064
:1021600039FD0346002B01D0FFF7D8FD00BF80BD2D
:10217000A40800200048014080B584B000AF3B4671
:1021800000221A605A609A60DA601D4B1D4A1A607C
:102190001B4B53225A601A4B00229A60184B41F68F
:1021A0002B22DA60164B00221A61154B80229A61AD
:1021B000134802F00FFD0346002B01D0FFF7AEFDE0
:1021C0000F4802F021FE0346002B01D0FFF7A6FDC9
:1021D00000233B6001237B600023BB600023FB6086
:1021E0003B4600221946064802F04BFF0346002BEF
:1021F00001D0FFF793FD00BF1037BD4680BD00BF83
:1022000064080020001C004080B588B000AF3B1D72
:1022100000221A605A609A60DA601A615A619A6103
:102220001D4B1E4A1A601C4B01225A601A4B002299
:102230009A60194BFF22DA60174B00221A61164B85
:1022400000229A61144802F0C5FC0346002B01D01D
:10225000FFF764FD104802F00CFD0346002B01D08F
:10226000FFF75CFD60237B60C823BB600023FB603D
:1022700000237B613B1D00221946074802F09EFFA8
:102280000346002B01D0FFF749FD034800F0D4F8C6
:1022900000BF2037BD4680BD24090020002000403B
:1022A00080B58EB000AF786007F1240300221A6079
:1022B0005A609A60DA601A617B681B68B3F1804FDC
:1022C0000ED100233B62554B1B6C544A43F0010373
:1022D0001364524B1B6C03F001033B623B6A98E0B2
:1022E0007B681B684E4A93420ED10023FB614B4B27
:1022F0001B6C4A4A43F002031364484B1B6C03F007
:102300000203FB61FB6984E07B681B68454A9342DA
:1023100016D10023BB61414B5B6C404A43F0020382
:1023200053643E4B5B6C03F00203BB61BB6900224C
:1023300000212C2001F0E3FC2C2001F0FCFC68E0E3
:102340007B681B68384A934216D100237B61334B6C
:102350005B6C324A43F480235364304B5B6C03F470
:1023600080237B617B69002200211A2001F0C7FCD9
:102370001A2001F0E0FC4CE07B681B682B4A93427A
:1023800034D100233B61254B1B6C244A43F080036E
:102390001364224B1B6C03F080033B613B690023F9
:1023A000FB601E4B1B6B1D4A43F0010313631B4B69
:1023B0001B6B03F00103FB60FB6840237B6202237D
:1023C000BB620023FB6200233B6309237B6307F1AD
:1023D00024031946164801F0EBFC002200212C20B2
:1023E00001F08DFC2C2001F0A6FC12E07B681B683C
:1023F000104A93420DD10023BB60084B1B6C074A67
:1024000043F480731364054B1B6C03F48073BB604F
:10241000BB6800BF3837BD4680BD00BF00380240F2
:10242000000400400004014000480140001C00403E
:10243000000002400020004080B58AB000AF786004
:1024400007F1140300221A605A609A60DA601A6178
:102450007B681B68B3F1804F1FD100233B61224B87
:102460001B6B214A43F0020313631F4B1B6B03F0EA
:1024700002033B613B694FF480637B610223BB61D4
:102480000023FB6100233B6201237B6207F11403FD
:102490001946164801F08CFC22E07B681B68144A40
:1024A00093421DD10023FB600F4B1B6B0E4A43F080
:1024B000010313630C4B1B6B03F00103FB60FB6810
:1024C00080237B610223BB610023FB6100233B620D
:1024D00009237B6207F114031946064801F068FCE2
:1024E00000BF2837BD4680BD0038024000040240CE
:1024F000002000400000024080B500AF114B124A9E
:102500001A60104B4FF461425A600E4B00229A60E1
:102510000C4B0022DA600B4B00221A61094B0C2293
:102520005A61084B00229A61064B0022DA61054885
:1025300003F07CFC0346002B01D0FFF7EFFB00BF4C
:1025400080BD00BF640900200010014080B58AB042
:1025500000AF786007F1140300221A605A609A6095
:10256000DA601A617B681B681D4A934234D10023EC
:102570003B611C4B5B6C1B4A43F010035364194BCB
:102580005B6C03F010033B613B690023FB60154B60
:102590001B6B144A43F001031363124B1B6B03F0D4
:1025A0000103FB60FB684FF4C0637B610223BB61E6
:1025B0000123FB6103233B6207237B6207F11403C2
:1025C0001946094801F0F4FB00220021252001F002
:1025D00096FB252001F0AFFB00BF2837BD4680BD2C
:1025E000001001400038024000000240DFF834D003
:1025F000002103E00C4B5B58435004310B480C4B5B
:1026000042189A42F6D30B4A02E0002342F8043BF8
:10261000094B9A42F9D3FFF75FFC06F091FFFFF7F1
:1026200043FA70470000022010B9000800000020A3
:102630000402002004020020DC090020FEE7000064
:1026400080B500AF0E4B1B680D4A43F40073136056
:102650000B4B1B680A4A43F480631360084B1B68EA
:10266000074A43F480731360032001F03DFB002010
:1026700000F008F8FFF766FB0023184680BD00BF96
:10268000003C024080B582B000AF7860124B1A68FF
:10269000124B1B7819464FF47A73B3FBF1F3B2FB7C
:1026A000F3F3184601F055FB0346002B01D001233C
:1026B0000EE07B680F2B0AD8002279684FF0FF30BC
:1026C00001F01DFB064A7B681360002300E0012334
:1026D00018460837BD4680BD0000002008000020D5
:1026E0000400002080B584B000AF78600023FB7345
:1026F0007B68002B01D1012333E07B681B6C002B2E
:1027000009D17868FEF794FC7B6800225A647B68E4
:10271000002283F83C207B681B6C03F01003002B25
:1027200018D17B681B6C23F4885323F0020343F019
:1027300002027B681A64786800F0D4FA7B68002291
:102740005A647B681B6C23F0030343F001027B682F
:102750001A6401E00123FB737B68002283F83C20AC
:10276000FB7B18461037BD4680BD000080B485B0A5
:1027700000AF78600023BB607B6893F83C30012B8E
:1027800001D10223A5E07B68012283F83C207B680D
:102790001B689B6803F00103012B18D07B681B6842
:1027A0009A687B681B6842F001029A604C4B1B6878
:1027B0004C4AA2FB03239A0C13465B001344BB60F4
:1027C00002E0BB68013BBB60BB68002BF9D17B68B2
:1027D0001B689B6803F00103012B79D17B681B6C9C
:1027E00023F4E06323F0010343F480727B681A64EE
:1027F0007B681B685B6803F48063002B07D07B68F1
:102800001B6C23F4405343F480527B681A647B684A
:102810001B6C03F48053B3F5805F06D17B685B6C5F
:1028200023F006027B685A6402E07B6800225A6447
:102830007B68002283F83C202B4BFB607B681B6885
:102840006FF022021A60FB685B6803F01F03002B25
:102850002AD17B681B68254A934215D07B681B6888
:10286000234A934205D1204B5B6803F01F03002BE2
:102870000AD07B681B681F4A934229D11A4B5B68B8
:1028800003F01F030F2B23D87B681B689B6803F0A2
:102890004053002B1CD17B681B689A687B681B68BF
:1028A00042F080429A6013E07B681B680F4A9342B3
:1028B0000ED17B681B689B6803F04053002B07D147
:1028C0007B681B689A687B681B6842F080429A604C
:1028D000002318461437BD465DF8047B704700BFDF
:1028E0000000002083DE1B43002301400020014044
:1028F000002101400022014080B483B000AF786025
:102900007B6893F83C30012B01D1022321E07B68E6
:10291000012283F83C207B681B689A687B681B68EF
:1029200022F001029A607B681B689B6803F0010338
:10293000002B09D17B681B6C23F4885323F001031F
:1029400043F001027B681A647B68002283F83C2014
:10295000002318460C37BD465DF8047B704780B5F0
:1029600084B000AF786039600023FB607B681B682F
:102970009B6803F48063B3F5806F13D17B681B6899
:102980009B6803F48073B3F5807F0BD17B681B6C6D
:1029900043F020027B681A647B68002283F83C20A5
:1029A00001235CE0FFF76AF9F8601AE03B68B3F1D5
:1029B000FF3F16D03B68002B07D0FFF75FF90246B8
:1029C000FB68D31A3A689A420BD27B681B6C43F0BF
:1029D00004027B681A647B68002283F83C2003238E
:1029E0003DE07B681B681B6803F00203022BDDD10E
:1029F0007B681B686FF012021A607B681B6C43F4E3
:102A000000727B681A647B681B689B6803F0405304
:102A1000002B23D17B681B7E002B1FD17B681B689A
:102A2000DB6A03F47003002B06D07B681B689B688D
:102A300003F48063002B11D17B681B6C23F480723C
:102A40007B681A647B681B6C03F48053002B05D1F0
:102A50007B681B6C43F001027B681A6400231846F4
:102A60001037BD4680BD80B483B000AF78607B680E
:102A70001B68DB6C18460C37BD465DF8047B70475D
:102A800080B485B000AF786039600023BB607B689C
:102A900093F83C30012B01D1022313E17B68012222
:102AA00083F83C203B681B68092B25D97B681B6891
:102AB000D9683B681B689BB21A4613465B001344F7
:102AC0001E3B072202FA03F3DA437B681B680A40C5
:102AD000DA607B681B68D9683B689A683B681B684A
:102AE0009BB2184603465B0003441E3B9A407B683A
:102AF0001B680A43DA6022E07B681B6819693B683F
:102B00001B689BB21A4613465B001344072202FA65
:102B100003F3DA437B681B680A401A617B681B6811
:102B200019693B689A683B681B689BB21846034664
:102B30005B0003449A407B681B680A431A613B6848
:102B40005B68062B24D87B681B68596B3B685A6806
:102B500013469B001344053B1F2202FA03F3DA439A
:102B60007B681B680A405A637B681B68596B3B682B
:102B70001B689BB218463B685A6813469B00134477
:102B8000053B00FA03F27B681B680A435A634CE07A
:102B90003B685B680C2B24D87B681B68196B3B680F
:102BA0005A6813469B001344233B1F2202FA03F387
:102BB000DA437B681B680A401A637B681B68196BE1
:102BC0003B681B689BB218463B685A6813469B00DB
:102BD0001344233B00FA03F27B681B680A431A6321
:102BE00023E07B681B68D96A3B685A6813469B00E0
:102BF0001344413B1F2202FA03F3DA437B681B684C
:102C00000A40DA627B681B68D96A3B681B689BB222
:102C100018463B685A6813469B001344413B00FA30
:102C200003F27B681B680A43DA62294BFB607B680E
:102C30001B68284A93420FD13B681B68122B0BD1AB
:102C4000FB685B6823F40002FB685A60FB685B6802
:102C500043F48002FB685A607B681B681D4A9342FC
:102C60002BD13B681B681C4A934203D03B681B680E
:102C7000112B22D1FB685B6823F48002FB685A6049
:102C8000FB685B6843F40002FB685A603B681B68A2
:102C9000114A934211D1114B1B68114AA2FB032325
:102CA0009A0C13469B0013445B00BB6002E0BB68B8
:102CB000013BBB60BB68002BF9D17B68002283F825
:102CC0003C20002318461437BD465DF8047B70474E
:102CD00000230140002001401200001000000020ED
:102CE00083DE1B4380B485B000AF7860794BFB6016
:102CF000FB685B6823F44032FB685A60FB685A68E3
:102D00007B685B681A43FB685A607B681B685A687B
:102D10007B681B6822F480725A607B681B68596864
:102D20007B681B691A027B681B680A435A607B68D0
:102D30001B685A687B681B6822F040725A607B6887
:102D40001B6859687B689A687B681B680A435A60ED
:102D50007B681B689A687B681B6822F400629A6033
:102D60007B681B6899687B68DA687B681B680A4324
:102D70009A607B689B6A584A934222D07B681B68A2
:102D80009A687B681B6822F070629A607B681B6897
:102D900099687B689A6A7B681B680A439A607B68BB
:102DA0001B689A687B681B6822F040529A607B68B7
:102DB0001B6899687B68DA6A7B681B680A439A60BB
:102DC0000FE07B681B689A687B681B6822F0706262
:102DD0009A607B681B689A687B681B6822F0405287
:102DE0009A607B681B689A687B681B6822F0020205
:102DF0009A607B681B6899687B681B7E5A007B68B9
:102E00001B680A439A607B6893F82030002B1BD024
:102E10007B681B685A687B681B6842F400625A60D2
:102E20007B681B685A687B681B6822F460425A60A2
:102E30007B681B6859687B685B6A013B5A037B6847
:102E40001B680A435A6007E07B681B685A687B6806
:102E50001B6822F400625A607B681B68DA6A7B6830
:102E60001B6822F47002DA627B681B68D96A7B688F
:102E7000DB69013B1A057B681B680A43DA627B68E1
:102E80001B689A687B681B6822F400729A607B68F2
:102E90001B6899687B6893F830305A027B681B681E
:102EA0000A439A607B681B689A687B681B6822F4F7
:102EB00080629A607B681B6899687B685B699A028C
:102EC0007B681B680A439A6000BF1437BD465DF8F3
:102ED000047B7047002301400100000F80B584B0DF
:102EE00000AF78607B68002B01D10123EDE07B68A7
:102EF00093F82030DBB2002B02D17868FEF7F0F8AF
:102F00007B681B681A687B681B6822F002021A60E3
:102F1000FEF7B4FEF86012E0FEF7B0FE0246FB6872
:102F2000D31A0A2B0BD97B685B6A43F400327B68A7
:102F30005A627B68052283F820200123C5E07B6864
:102F40001B685B6803F00203002BE5D17B681B68FC
:102F50001A687B681B6842F001021A60FEF78EFE59
:102F6000F86012E0FEF78AFE0246FB68D31A0A2BCD
:102F70000BD97B685B6A43F400327B685A627B68DA
:102F8000052283F8202001239FE07B681B685B6893
:102F900003F00103002BE5D07B681B7E012B08D1D9
:102FA0007B681B681A687B681B6842F080021A60A5
:102FB00007E07B681B681A687B681B6822F0800248
:102FC0001A607B685B7E012B08D17B681B681A68DE
:102FD0007B681B6842F040021A6007E07B681B6850
:102FE0001A687B681B6822F040021A607B689B7E2F
:102FF000012B08D17B681B681A687B681B6842F04C
:1030000020021A6007E07B681B681A687B681B68EF
:1030100022F020021A607B68DB7E012B08D17B68DE
:103020001B681A687B681B6822F010021A6007E0B0
:103030007B681B681A687B681B6842F010021A6084
:103040007B681B7F012B08D17B681B681A687B6833
:103050001B6842F008021A6007E07B681B681A6868
:103060007B681B6822F008021A607B685B7F012B7B
:1030700008D17B681B681A687B681B6842F00402F1
:103080001A6007E07B681B681A687B681B6822F07F
:1030900004021A607B689A687B68DB681A437B6865
:1030A0001B691A437B685B6942EA03017B685B68C2
:1030B0005A1E7B681B680A43DA617B6800225A62E9
:1030C0007B68012283F82020002318461037BD4674
:1030D00080BD000080B487B000AF786039607B6845
:1030E0001B687B617B6893F82030FB74FB7C012BB1
:1030F00003D0FB7C022B40F0BE80654B7B617B697B
:10310000D3F8003243F001027B69C3F800227B69E7
:10311000D3F8003223F47C527B69C3F800227B6928
:10312000D3F800223B685B6A1B021A437B69C3F831
:1031300000223B685B6903F01F03012202FA03F3DC
:10314000FB607B69D3F81C22FB68DB431A407B6978
:10315000C3F81C223B68DB69002B23D17B69D3F8C1
:103160000C22FB68DB431A407B69C3F80C223B68E6
:10317000DB6819043B685B689BB23A685269194383
:103180007B69483243F832103B689B6819043B68FE
:103190001B689AB23B685B690A4379694833DB0074
:1031A0000B445A603B68DB69012B22D17B69D3F861
:1031B0000C22FB681A437B69C3F80C223B681B682E
:1031C00019043B685B689BB23A68526919437B6992
:1031D000483243F832103B689B6819043B68DB684F
:1031E0009AB23B685B690A4379694833DB000B4458
:1031F0005A603B689B69002B09D17B69D3F8042294
:10320000FB68DB431A407B69C3F8042207E07B6953
:10321000D3F80422FB681A437B69C3F804223B6895
:103220001B69002B09D17B69D3F81422FB68DB43AF
:103230001A407B69C3F8142207E07B69D3F8142293
:10324000FB681A437B69C3F814223B681B6A012B95
:1032500007D17B69D3F81C22FB681A437B69C3F84A
:103260001C227B69D3F8003223F001027B69C3F88A
:103270000022002306E07B685B6A43F480227B68BF
:103280005A62012318461C37BD465DF8047B70471F
:103290000064004080B584B000AF78607B6893F82C
:1032A0002030DBB2012B2ED17B68022283F8202054
:1032B0007B681B681A687B681B6822F001021A6031
:1032C000FEF7DCFCF86012E0FEF7D8FC0246FB6873
:1032D000D31A0A2B0BD97B685B6A43F400327B68F4
:1032E0005A627B68052283F82020012312E07B6864
:1032F0001B685B6803F00103002BE5D17B680022AB
:103300005A62002306E07B685B6A43F400227B6814
:103310005A62012318461037BD4680BD80B489B07B
:1033200000AFF860B9607A603B60FB6893F82030CA
:10333000FB77FB681B689B68BB61FB7F012B03D09D
:10334000FB7F022B40F0B880BB6903F08063002B49
:103350000AD1BB6903F00063002B05D1BB6903F000
:103360008053002B00F0A080BB691B0E03F0030309
:103370007B617B69022B07D9FB685B6A43F400021F
:10338000FB685A6201239EE001227B699A403B68F8
:103390001A60BB689B68002B0DD1BB681B685A057F
:1033A000BB68DB68F96809681A437B6918331B013D
:1033B0000B441A600FE0BB685B68DA00BB689B686F
:1033C0001A43BB68DB68F96809681A437B691833DC
:1033D0001B010B441A60FB681968BB681A697B699A
:1033E00018331B010B4404331A60BB681B7D012B8F
:1033F00011D1FB681A687B6918331B01134404332D
:103400001B68FA68116843F480727B6918331B01EA
:103410000B4404331A607B6807331B781A067B68F9
:1034200006331B781B041A437B6805331B781B0289
:1034300013437A68043212781046FA68116843EA36
:1034400000027B691B010B4403F5C6731A607B689D
:1034500003331B781A067B6802331B781B041A435C
:103460007B6801331B781B0213437A68127810467D
:10347000FA68116843EA00027B691B010B4403F5FB
:10348000C4731A60FB681A687B6918331B01134404
:103490001B68FA68116843F001027B6918331B014D
:1034A0000B441A6000230EE0FB685B6A43F40012D1
:1034B000FB685A62012306E0FB685B6A43F48022E2
:1034C000FB685A62012318462437BD465DF8047B29
:1034D000704780B487B000AFF860B9607A603B6035
:1034E000FB6893F82030FB75FB7D012B03D0FB7D3F
:1034F000022B40F0F480BB68002B0ED1FB681B68E8
:10350000DB6803F00303002B16D1FB685B6A43F40E
:103510000012FB685A620123E8E0FB681B681B6924
:1035200003F00303002B07D1FB685B6A43F400122E
:10353000FB685A620123D9E0FB681A68BB681B3339
:103540001B0113441B6803F004027B689A607B68CC
:103550009B68002B0CD1FB681A68BB681B331B01EE
:1035600013441B685B0DC3F30A027B681A600BE00F
:10357000FB681A68BB681B331B0113441B68DB081C
:1035800023F060427B685A60FB681A68BB681B3393
:103590001B0113441B685B0803F001027B68DA60BF
:1035A000FB681A68BB681B331B01134404331B6898
:1035B00003F00F027B681A61FB681A68BB681B3353
:1035C0001B01134404331B681B0ADAB27B689A613F
:1035D000FB681A68BB681B331B01134404331B6868
:1035E0001B0C9AB27B685A61FB681A68BB681B01A6
:1035F000134403F5DC731B68DAB23B681A70FB688E
:103600001A68BB681B01134403F5DC731B681A0AB4
:103610003B680133D2B21A70FB681A68BB681B01A1
:10362000134403F5DC731B681A0C3B680233D2B2F7
:103630001A70FB681A68BB681B01134403F5DC733E
:103640001B681A0E3B680333D2B21A70FB681A6803
:10365000BB681B01134403F5DE731A683B6804332F
:10366000D2B21A70FB681A68BB681B01134403F5D9
:10367000DE731B681A0A3B680533D2B21A70FB6806
:103680001A68BB681B01134403F5DE731B681A0C30
:103690003B680633D2B21A70FB681A68BB681B011C
:1036A000134403F5DE731B681A0E3B680733D2B26E
:1036B0001A70BB68002B08D1FB681B68DA68FB68CE
:1036C0001B6842F02002DA6007E0FB681B681A6999
:1036D000FB681B6842F020021A61002306E0FB68C9
:1036E0005B6A43F48022FB685A62012318461C3748
:1036F000BD465DF8047B704780B485B000AF78604C
:1037000039607B6893F82030FB73FB7B012B02D080
:10371000FB7B022B09D17B681B6859697B681B689E
:103720003A680A435A61002306E07B685B6A43F407
:1037300080227B685A62012318461437BD465DF823
:10374000047B704780B58AB000AF786000237B624D
:103750007B681B685B693B627B681B685B68FB611D
:103760007B681B689B68BB617B681B68DB687B614F
:103770007B681B681B693B617B681B689B69FB60FE
:103780003B6A03F00103002B7CD0BB6903F001030B
:10379000002B23D07B681B6801229A60BB6903F071
:1037A0000203002B03D07868FDF776FE16E0BB69B4
:1037B00003F00403002B04D07B6A43F400637B62B4
:1037C0000CE0BB6903F00803002B04D07B6A43F4D0
:1037D00080537B6202E0786800F065F9BB6903F40E
:1037E0008073002B24D07B681B684FF480729A6032
:1037F000BB6903F40073002B03D07868FDF75EFE0D
:1038000016E0BB6903F48063002B04D07B6A43F4A9
:1038100000537B620CE0BB6903F40063002B04D00F
:103820007B6A43F480437B6202E0786800F045F9EC
:10383000BB6903F48033002B24D07B681B684FF4F2
:1038400080329A60BB6903F40033002B03D07868A0
:10385000FDF746FE16E0BB6903F48023002B04D07D
:103860007B6A43F400437B620CE0BB6903F40023F2
:10387000002B04D07B6A43F480337B6202E07868DB
:1038800000F025F93B6A03F00803002B0CD07B699C
:1038900003F01003002B07D07B6A43F400737B62B4
:1038A0007B681B681022DA603B6A03F00403002B7C
:1038B0000BD07B6903F00803002B06D07B681B68E4
:1038C0000822DA60786800F00CF93B6A03F0020322
:1038D000002B09D07B681B68DB6803F00303002B17
:1038E00002D07868FDF790FE3B6A03F04003002B9E
:1038F0000CD03B6903F01003002B07D07B6A43F424
:1039000080637B627B681B6810221A613B6A03F04C
:103910002003002B0BD03B6903F00803002B06D0DB
:103920007B681B6808221A61786800F0E4F83B6A3B
:1039300003F01003002B09D07B681B681B6903F0A0
:103940000303002B02D07868FDF76AFE3B6A03F49C
:103950000033002B0BD0FB6903F01003002B06D0C3
:103960007B681B6810225A60786800F0CEF83B6ACA
:1039700003F48033002B0BD0FB6903F00803002B0A
:1039800006D07B681B6808225A60786800F0C7F888
:103990003B6A03F40043002B75D0FB6903F004037A
:1039A000002B6CD03B6A03F48073002B08D0FB68BB
:1039B00003F00103002B03D07B6A43F001037B6219
:1039C0003B6A03F40073002B08D0FB6803F002038A
:1039D000002B03D07B6A43F002037B623B6A03F453
:1039E0008063002B08D0FB6803F00403002B03D096
:1039F0007B6A43F004037B623B6A03F40063002BA1
:103A00003DD0FB6803F07003002B38D0FB6803F057
:103A10007003302B17D0302B04D8102B09D0202B5B
:103A20000CD024E0502B18D0602B1BD0402B0FD093
:103A30001DE07B6A43F008037B6218E07B6A43F079
:103A400010037B6213E07B6A43F020037B620EE08D
:103A50007B6A43F040037B6209E07B6A43F08003AA
:103A60007B6204E07B6A43F480737B6200BF7B6807
:103A70001B689A697B681B6822F070029A617B68F8
:103A80001B6804225A607B6A002B08D07B685A6A44
:103A90007B6A1A437B685A62786800F04AF800BF74
:103AA0002837BD4680BD80B483B000AF786000BFCA
:103AB0000C37BD465DF8047B704780B483B000AF1F
:103AC000786000BF0C37BD465DF8047B704780B45A
:103AD00083B000AF786000BF0C37BD465DF8047B53
:103AE000704780B483B000AF786000BF0C37BD462C
:103AF0005DF8047B704780B483B000AF786000BF8E
:103B00000C37BD465DF8047B704780B483B000AFCE
:103B1000786000BF0C37BD465DF8047B704780B409
:103B200083B000AF786000BF0C37BD465DF8047B02
:103B3000704780B483B000AF786000BF0C37BD46DB
:103B40005DF8047B7047000080B485B000AF7860FA
:103B50007B6803F00703FB600C4BDB68BB60BA6853
:103B60004FF6FF031340BB60FB681A02BB681343A8
:103B700043F0BF6343F40033BB60044ABB68D360C7
:103B800000BF1437BD465DF8047B704700ED00E0D0
:103B900080B400AF044BDB681B0A03F00703184630
:103BA000BD465DF8047B704700ED00E080B483B053
:103BB00000AF0346FB7197F90730002B0BDBFB7955
:103BC00003F01F02074997F907305B09012000FA4B
:103BD00002F241F8232000BF0C37BD465DF8047B9C
:103BE000704700BF00E100E080B483B000AF03463F
:103BF0003960FB7197F90730002B0ADB3B68DAB2BA
:103C00000C4997F907301201D2B20B4483F8002314
:103C10000AE03B68DAB20849FB7903F00F03043B82
:103C20001201D2B20B441A7600BF0C37BD465DF8C4
:103C3000047B704700E100E000ED00E080B489B053
:103C400000AFF860B9607A60FB6803F00703FB61BE
:103C5000FB69C3F10703042B28BF0423BB61FB6985
:103C60000433062B02D9FB69033B00E000237B6190
:103C70004FF0FF32BB6902FA03F3DA43BB681A4024
:103C80007B699A404FF0FF317B6901FA03F3D94316
:103C90007B680B40134318462437BD465DF8047B10
:103CA0007047000080B582B000AF78607B68013B50
:103CB000B3F1807F01D301230FE00A4A7B68013B07
:103CC00053600F214FF0FF30FFF78EFF054B0022AE
:103CD0009A60044B07221A60002318460837BD4635
:103CE00080BD00BF10E000E080B582B000AF78601A
:103CF0007868FFF729FF00BF0837BD4680BD80B553
:103D000086B000AF0346B9607A60FB7300237B6125
:103D1000FFF73EFF78617A68B9687869FFF78EFF30
:103D2000024697F90F3011461846FFF75DFF00BFB6
:103D30001837BD4680BD80B582B000AF0346FB7129
:103D400097F907301846FFF731FF00BF0837BD4627
:103D500080BD80B582B000AF78607868FFF7A2FFC1
:103D6000034618460837BD4680BD80B483B000AF17
:103D700078607B6893F83530DBB2022B04D07B6827
:103D800080225A6501230CE07B68052283F83520E8
:103D90007B681B681A687B681B6822F001021A6046
:103DA000002318460C37BD465DF8047B70470000C1
:103DB00080B489B000AF7860396000237B61002354
:103DC0003B610023BB610023FB6165E10122FB69CC
:103DD00002FA03F37B613B681B687A6913403B611D
:103DE0003A697B699A4240F054813B685B68022BD8
:103DF00003D03B685B68122B23D1FB69DA087B6830
:103E0000083253F82230BB61FB6903F007039B00C3
:103E10000F2202FA03F3DB43BA691340BB613B682C
:103E20001A69FB6903F007039B0002FA03F3BA69FE
:103E30001343BB61FB69DA087B680832B96943F850
:103E400022107B681B68BB61FB695B00032202FADE
:103E500003F3DB43BA691340BB613B685B6803F063
:103E60000302FB695B0002FA03F3BA691343BB6107
:103E70007B68BA691A603B685B68012B0BD03B68B2
:103E80005B68022B07D03B685B68112B03D03B6853
:103E90005B68122B30D17B689B68BB61FB695B0060
:103EA000032202FA03F3DB43BA691340BB613B68A8
:103EB000DA68FB695B0002FA03F3BA691343BB617A
:103EC0007B68BA699A607B685B68BB610122FB69A9
:103ED00002FA03F3DB43BA691340BB613B685B68DA
:103EE0001B0903F00102FB6902FA03F3BA691343E9
:103EF000BB617B68BA695A607B68DB68BB61FB6940
:103F00005B00032202FA03F3DB43BA691340BB618F
:103F10003B689A68FB695B0002FA03F3BA691343D2
:103F2000BB617B68BA69DA603B685B6803F0805309
:103F3000002B00F0AE800023FB605C4B5B6C5B4AA7
:103F400043F480435364594B5B6C03F48043FB6040
:103F5000FB68574AFB699B08023352F82330BB6168
:103F6000FB6903F003039B000F2202FA03F3DB4318
:103F7000BA691340BB617B684E4A934225D07B6887
:103F80004D4A93421FD07B684C4A934219D07B68BC
:103F90004B4A934213D07B684A4A93420DD07B68C8
:103FA000494A934207D07B68484A934201D106238D
:103FB0000CE007230AE0052308E0042306E00323BE
:103FC00004E0022302E0012300E00023FA6902F08A
:103FD000030292009340BA691343BB613449FB6901
:103FE0009B080233BA6941F82320394B1B68BB6137
:103FF0003B69DB43BA691340BB613B685B6803F410
:104000008033002B03D0BA693B691343BB61304A4C
:10401000BB6913602E4B5B68BB613B69DB43BA69CC
:104020001340BB613B685B6803F40033002B03D093
:10403000BA693B691343BB61254ABB695360244B92
:104040009B68BB613B69DB43BA691340BB613B685A
:104050005B6803F48013002B03D0BA693B691343F8
:10406000BB611B4ABB699360194BDB68BB613B6951
:10407000DB43BA691340BB613B685B6803F4001320
:10408000002B03D0BA693B691343BB61104ABB697B
:10409000D360FB690133FB61FB690F2B7FF696AEA2
:1040A00000BF2437BD465DF8047B704700380240EE
:1040B00000380140000002400004024000080240B5
:1040C000000C0240001002400014024000180240A0
:1040D000003C014080B485B000AF78600B467B8027
:1040E0007B681A697B881340002B02D00123FB7385
:1040F00001E00023FB73FB7B18461437BD465DF8D7
:10410000047B704780B483B000AF78600B467B803F
:1041100013467B707B78002B03D07A887B689A618A
:1041200003E07B881A047B689A6100BF0C37BD46A8
:104130005DF8047B704780B483B000AF78600B46B5
:104140007B807B685A697B881A407B889A4204D1BD
:104150007B881A047B689A6102E07A887B689A619E
:1041600000BF0C37BD465DF8047B704780B582B058
:1041700000AF0346FB80084B5A69FB881340002BB5
:1041800006D0054AFB885361FB88184600F006F804
:1041900000BF0837BD4680BD003C014080B483B0FD
:1041A00000AF0346FB8000BF0C37BD465DF8047BC3
:1041B0007047000080B584B000AF786039607B68DC
:1041C000002B01D10123CAE0674B1B6803F00F03EA
:1041D0003A689A420CD9644B3A68D2B21A70624B70
:1041E0001B6803F00F033A689A4201D00123B6E03E
:1041F0007B681B6803F00203002B20D07B681B68E0
:1042000003F00403002B05D0584B9B68574A43F436
:10421000E05393607B681B6803F00803002B05D014
:10422000524B9B68514A43F4604393604F4B9B68E9
:1042300023F0F0027B689B684C4913438B607B68DA
:104240001B6803F00103002B44D07B685B68012BE3
:1042500007D1464B1B6803F40033002B19D101230F
:104260007DE07B685B68022B03D07B685B68032B77
:1042700007D13E4B1B6803F00073002B09D10123CB
:104280006DE03A4B1B6803F00203002B01D10123C0
:1042900065E0364B9B6823F003027B685B6833491B
:1042A00013438B60FDF7EAFCF8600AE0FDF7E6FCDB
:1042B0000246FB68D31A41F28832934201D90323A4
:1042C0004DE02A4B9B6803F00C027B685B689B0007
:1042D0009A42EBD1244B1B6803F00F033A689A42D1
:1042E0000CD2214B3A68D2B21A701F4B1B6803F0F4
:1042F0000F033A689A4201D0012330E07B681B68C3
:1043000003F00403002B08D0184B9B6823F4E05201
:104310007B68DB68154913438B607B681B6803F07F
:104320000803002B09D0114B9B6823F460427B6883
:104330001B69DB000D4913438B6000F051F8014607
:104340000A4B9B681B0903F00F03094AD35C21FA4F
:1043500003F3084A13600020FEF794F9002318467F
:104360001037BD4680BD00BF003C0240003802400F
:1043700088B600080000002080B400AF034B1B6823
:104380001846BD465DF8047B704700BF0000002062
:1043900080B500AFFFF7F0FF0146054B9B689B0A15
:1043A00003F00703034AD35C21FA03F3184680BDE8
:1043B0000038024098B6000880B500AFFFF7DCFF78
:1043C0000146054B9B685B0B03F00703034AD35C74
:1043D00021FA03F3184680BD0038024098B6000861
:1043E000F0B587B000AF0023FB6000237B610023A2
:1043F000BB6000237B6000233B61C64B9B6803F0DE
:104400000C030C2B00F27E8101A252F823F000BFB6
:10441000454400080547000805470008054700080F
:104420004B440008054700080547000805470008F9
:1044300051440008054700080547000805470008E3
:10444000AD450008B44B3B615FE1B44B3B615CE1BF
:10445000B04B5B6803F03F03FB60AE4B5B6803F45B
:104460008003002B4AD0AB4B5B689B094FF00004E4
:1044700040F2FF114FF0000203EA010504EA0206D0
:10448000294632464FF000034FF00004540144EA3D
:10449000D1644B0119462246491B62EB06024FF0DC
:1044A00000034FF00004940144EA91648B015B1A0D
:1044B00064EB02044FF000014FF00002E20042EA18
:1044C0005372D9000B4614465B1944EB06044FF0B7
:1044D00000014FF00002620242EAD35259020B4639
:1044E000144618462146FB684FF000041A4623463E
:1044F000FCF7CAFB03460C467B6149E0854B5B68D1
:104500009B094FF0000440F2FF114FF0000203EA54
:10451000010504EA0206294632464FF000034FF037
:104520000004540144EAD1644B0119462246491B58
:1045300062EB06024FF000034FF00004940144EADE
:1045400091648B015B1A64EB02044FF000014FF0A1
:104550000002E20042EA5372D9000B4614465B198E
:1045600044EB06044FF000014FF00002A20242EAC1
:10457000935299020B46144618462146FB684FF0A9
:1045800000041A462346FCF77FFB03460C467B617A
:10459000604B5B681B0C03F0030301335B00BB60E3
:1045A0007A69BB68B2FBF3F33B61AEE0594B5B68E1
:1045B00003F03F03FB60574B5B6803F48003002B61
:1045C0004AD0544B5B689B094FF0000440F2FF1146
:1045D0004FF0000203EA010504EA020629463246CA
:1045E0004FF000034FF00004540144EAD1644B0142
:1045F00019462246491B62EB06024FF000034FF0BA
:104600000004940144EA91648B015B1A64EB020498
:104610004FF000014FF00002E20042EA5372D9006D
:104620000B4614465B1944EB06044FF000014FF0B3
:104630000002620242EAD35259020B46144618465F
:104640002146FB684FF000041A462346FCF71CFB8A
:1046500003460C467B6149E02E4B5B689B094FF09B
:10466000000440F2FF114FF0000203EA010504EAE2
:104670000206294632464FF000034FF00004540171
:1046800044EAD1644B0119462246491B62EB0602FB
:104690004FF000034FF00004940144EA91648B0151
:1046A0005B1A64EB02044FF000014FF00002E200DD
:1046B00042EA5372D9000B4614465B1944EB0604D8
:1046C0004FF000014FF00002A20242EA9352990219
:1046D0000B46144618462146FB684FF000041A4664
:1046E0002346FCF7D1FA03460C467B61094B5B6815
:1046F0001B0F03F007037B607A697B68B2FBF3F35F
:104700003B6102E0044B3B6100BF3B6918461C372C
:10471000BD46F0BD003802400024F40000127A00CB
:1047200080B586B000AF786000233B617B681B6872
:1047300003F00103002B00F08380954B9B6803F08E
:104740000C03042B19D0924B9B6803F00C03082B2D
:1047500006D18F4B5B6803F48003B3F5800F0CD058
:104760008B4B9B6803F00C030C2B12D1884B5B68BE
:1047700003F48003B3F5800F0BD1854B1B6803F462
:104780000033002B5BD07B685B68002B57D1012383
:1047900016E27B685B68B3F5803F06D17C4B1B68F3
:1047A0007B4A43F4803313601DE07B685B68B3F59C
:1047B000A02F0CD1764B1B68754A43F480231360FD
:1047C000734B1B68724A43F4803313600BE0704BE9
:1047D0001B686F4A23F4803313606D4B1B686C4A6F
:1047E00023F4802313607B685B68002B13D0FDF7F4
:1047F00045FA386108E0FDF741FA02463B69D31AF1
:10480000642B01D90323DBE1614B1B6803F4003304
:10481000002BF0D014E0FDF731FA386108E0FDF725
:104820002DFA02463B69D31A642B01D90323C7E151
:10483000574B1B6803F40033002BF0D100E000BF9E
:104840007B681B6803F00203002B6FD0504B9B6802
:1048500003F00C03002B17D04D4B9B6803F00C03A7
:10486000082B05D14A4B5B6803F48003002B0BD067
:10487000474B9B6803F00C030C2B1CD1444B5B682B
:1048800003F48003002B16D1414B1B6803F0020395
:10489000002B05D07B68DB68012B01D001238FE161
:1048A0003B4B1B6823F0F8027B681B69DB0038492F
:1048B00013430B603AE07B68DB68002B20D0354B5C
:1048C00001221A60FDF7DAF9386108E0FDF7D6F940
:1048D00002463B69D31A022B01D9032370E12C4B0A
:1048E0001B6803F00203002BF0D0294B1B6823F058
:1048F000F8027B681B69DB00254913430B6015E058
:10490000244B00221A60FDF7B9F9386108E0FDF781
:10491000B5F902463B69D31A022B01D903234FE1B3
:104920001B4B1B6803F00203002BF0D17B681B6854
:1049300003F00803002B37D07B685B69002B16D08F
:10494000154B01221A60FDF799F9386108E0FDF76F
:1049500095F902463B69D31A022B01D903232FE1B3
:104960000B4B5B6F03F00203002BF0D01CE00A4BF3
:1049700000221A60FDF782F938610FE0FDF77EF939
:1049800002463B69D31A022B08D9032318E100BF62
:104990000038024000004742800E47428A4B5B6F5E
:1049A00003F00203002BE9D17B681B6803F00403CA
:1049B000002B00F097800023FB75834B1B6C03F0EA
:1049C0008053002B0FD10023FB607F4B1B6C7E4A72
:1049D00043F0805313647C4B1B6C03F08053FB60EB
:1049E000FB680123FB75794B1B6803F48073002B74
:1049F00018D1764B1B68754A43F480731360FDF73A
:104A00003DF9386108E0FDF739F902463B69D31AF0
:104A1000022B01D90323D3E06C4B1B6803F4807392
:104A2000002BF0D07B689B68012B06D1664B1B6F77
:104A3000654A43F0010313671CE07B689B68052B04
:104A40000CD1614B1B6F604A43F0040313675E4B4C
:104A50001B6F5D4A43F0010313670BE05A4B1B6F5A
:104A6000594A23F001031367574B1B6F564A23F033
:104A7000040313677B689B68002B15D0FDF7FEF8D5
:104A800038610AE0FDF7FAF802463B69D31A41F2B1
:104A90008832934201D9032392E04B4B1B6F03F002
:104AA0000203002BEED014E0FDF7E8F838610AE0CD
:104AB000FDF7E4F802463B69D31A41F2883293428B
:104AC00001D903237CE0404B1B6F03F00203002B52
:104AD000EED1FB7D012B05D13B4B1B6C3A4A23F0F9
:104AE000805313647B689B69002B68D0364B9B68AE
:104AF00003F00C03082B60D07B689B69022B45D127
:104B0000334B00221A60FDF7B9F8386108E0FDF771
:104B1000B5F802463B69D31A022B01D903234FE0B3
:104B2000294B1B6803F00073002BF0D17B68DA6916
:104B30007B681B6A1A437B685B6A9B011A437B682C
:104B40009B6A5B08013B1B041A437B68DB6A1B06FC
:104B50001A437B681B6B1B071B4913434B601C4BA1
:104B600001221A60FDF78AF8386108E0FDF786F83F
:104B700002463B69D31A022B01D9032320E0124BD2
:104B80001B6803F00073002BF0D018E0104B0022DC
:104B90001A60FDF773F8386108E0FDF76FF8024618
:104BA0003B69D31A022B01D9032309E0064B1B688A
:104BB00003F00073002BF0D101E0012300E000239B
:104BC00018461837BD4680BD0038024000700040CE
:104BD0006000474280B582B000AF78607B68002BF0
:104BE00001D101231DE07B6893F83D30DBB2002B3F
:104BF00006D17B68002283F83C207868FDF750FBE3
:104C00007B68022283F83D207B681A687B68043346
:104C10001946104600F078FC7B68012283F83D209D
:104C2000002318460837BD4680BD80B485B000AF6C
:104C300078607B681B68DA687B681B6842F0010259
:104C4000DA607B681B689B6803F00703FB60FB6806
:104C5000062B07D07B681B681A687B681B6842F0CC
:104C600001021A60002318461437BD465DF8047B24
:104C7000704780B582B000AF78607B68002B01D1AF
:104C800001231DE07B6893F83D30DBB2002B06D199
:104C90007B68002283F83C20786800F015F87B6878
:104CA000022283F83D207B681A687B68043319462A
:104CB000104600F029FC7B68012283F83D20002388
:104CC00018460837BD4680BD80B483B000AF786019
:104CD00000BF0C37BD465DF8047B704780B584B0DB
:104CE00000AF786039607B681B680122396818461C
:104CF00001F01EF87B681B68154A934204D07B685C
:104D00001B68144A934201D1012300E00023002BC9
:104D100007D07B681B685A6C7B681B6842F40042B2
:104D20005A647B681B689B6803F00703FB60FB68A1
:104D3000062B07D07B681B681A687B681B6842F0EB
:104D400001021A60002318461037BD4680BD00BF1F
:104D5000000001400004014080B582B000AF7860DF
:104D600039607B681B6800223968184600F0E0FF54
:104D70007B681B68224A934204D07B681B68214AE7
:104D8000934201D1012300E00023002B17D07B6860
:104D90001B681A6A41F211131340002B0FD17B6874
:104DA0001B681A6A40F244431340002B07D17B680A
:104DB0001B685A6C7B681B6822F400425A647B684B
:104DC0001B681A6A41F211131340002B0FD17B6844
:104DD0001B681A6A40F244431340002B07D17B68DA
:104DE0001B681A687B681B6822F001021A607B68E6
:104DF000012283F83D20002318460837BD4680BDB8
:104E0000000001400004014080B582B000AF78602E
:104E10007B68002B01D101231DE07B6893F83D30B6
:104E2000DBB2002B06D17B68002283F83C20786837
:104E300000F015F87B68022283F83D207B681A6831
:104E40007B6804331946104600F05EFB7B68012244
:104E500083F83D20002318460837BD4680BD80B446
:104E600083B000AF786000BF0C37BD465DF8047BAF
:104E7000704780B582B000AF78607B681B681B69A3
:104E800003F00203022B22D17B681B68DB6803F06E
:104E90000203022B1BD17B681B686FF002021A61B0
:104EA0007B6801221A777B681B689B6903F0030308
:104EB000002B03D0786800F008FB05E0786800F06C
:104EC000FAFA786800F00BFB7B6800221A777B689F
:104ED0001B681B6903F00403042B22D17B681B6849
:104EE000DB6803F00403042B1BD17B681B686FF0A5
:104EF00004021A617B6802221A777B681B689B692F
:104F000003F44073002B03D0786800F0DEFA05E06C
:104F1000786800F0D0FA786800F0E1FA7B68002247
:104F20001A777B681B681B6903F00803082B22D1E2
:104F30007B681B68DB6803F00803082B1BD17B68C8
:104F40001B686FF008021A617B6804221A777B687D
:104F50001B68DB6903F00303002B03D0786800F0C3
:104F6000B4FA05E0786800F0A6FA786800F0B7FABD
:104F70007B6800221A777B681B681B6903F01003AB
:104F8000102B22D17B681B68DB6803F01003102B09
:104F90001BD17B681B686FF010021A617B680822C6
:104FA0001A777B681B68DB6903F44073002B03D01E
:104FB000786800F08AFA05E0786800F07CFA786892
:104FC00000F08DFA7B6800221A777B681B681B69EA
:104FD00003F00103012B0ED17B681B68DB6803F033
:104FE0000103012B07D17B681B686FF001021A6176
:104FF0007868FCF739FD7B681B681B6903F0800348
:10500000802B0ED17B681B68DB6803F08003802B4C
:1050100007D17B681B686FF080021A61786800F026
:10502000FBFE7B681B681B6903F04003402B0ED11D
:105030007B681B68DB6803F04003402B07D17B686B
:105040001B686FF040021A61786800F052FA7B68C2
:105050001B681B6903F02003202B0ED17B681B68A3
:10506000DB6803F02003202B07D17B681B686FF0FF
:1050700020021A61786800F0C5FE00BF0837BD46FF
:1050800080BD80B584B000AFF860B9607A60FB681D
:1050900093F83C30012B01D102238AE0FB68012206
:1050A00083F83C20FB68022283F83D207B68002BBC
:1050B0001BD1FB681868BB681968BB685A68BB6875
:1050C000DB6800F071FCFB681B689A69FB681B6871
:1050D00022F00C029A61FB681B689969BB689A68A8
:1050E000FB681B680A439A615AE07B68042B1CD159
:1050F000FB681868BB681968BB685A68BB68DB68DE
:1051000000F0F5FCFB681B689A69FB681B6822F4D9
:1051100040629A61FB681B689969BB689B681A02C8
:10512000FB681B680A439A613AE07B68082B1BD135
:10513000FB681868BB681968BB685A68BB68DB689D
:1051400000F042FDFB681B68DA69FB681B6822F00F
:105150000C02DA61FB681B68D969BB689A68FB6856
:105160001B680A43DA611BE0FB681868BB681968B2
:10517000BB685A68BB68DB6800F062FDFB681B68AF
:10518000DA69FB681B6822F44062DA61FB681B681D
:10519000D969BB689B681A02FB681B680A43DA611D
:1051A000FB68012283F83D20FB68002283F83C2045
:1051B000002318461037BD4680BD000080B584B07E
:1051C00000AFF860B9607A60FB6893F83C30012B5F
:1051D00001D10223B4E0FB68012283F83C20FB6884
:1051E000022283F83D207B680C2B00F29F8001A2F5
:1051F00052F823F0295200082D5300082D530008BF
:105200002D530008695200082D5300082D53000843
:105210002D530008AB5200082D5300082D530008F1
:105220002D530008EB520008FB681B68B96818464C
:1052300000F00AFAFB681B689A69FB681B6842F079
:1052400008029A61FB681B689A69FB681B6822F078
:1052500004029A61FB681B689969BB681A69FB685C
:105260001B680A439A6162E0FB681B68B9681846CC
:1052700000F05AFAFB681B689A69FB681B6842F4E5
:1052800000629A61FB681B689A69FB681B6822F4DC
:1052900080629A61FB681B689969BB681B691A0286
:1052A000FB681B680A439A6141E0FB681B68B968A8
:1052B000184600F0AFFAFB681B68DA69FB681B68E8
:1052C00042F00802DA61FB681B68DA69FB681B6858
:1052D00022F00402DA61FB681B68D969BB681A69AD
:1052E000FB681B680A43DA6121E0FB681B68B96848
:1052F000184600F003FBFB681B68DA69FB681B6853
:1053000042F40062DA61FB681B68DA69FB681B68BB
:1053100022F48062DA61FB681B68D969BB681B698B
:105320001A02FB681B680A43DA6100E000BFFB68F1
:10533000012283F83D20FB68002283F83C200023F3
:1053400018461037BD4680BD80B584B000AF786088
:1053500039607B6893F83C30012B01D10223A6E031
:105360007B68012283F83C207B68022283F83D2081
:105370007B681B689B68FB60FB6823F07703FB601E
:10538000FB6823F47F43FB607B681B68FA689A60C4
:105390003B681B68402B67D0402B0BD8102B73D079
:1053A000102B02D8002B6FD078E0202B6CD0302B44
:1053B0006AD073E0702B0DD0702B04D8502B33D0F3
:1053C000602B41D06AE0B3F5805F66D0B3F5005F33
:1053D00017D063E07B6818683B6899683B685A6837
:1053E0003B68DB6800F084FC7B681B689B68FB60A3
:1053F000FB6843F07703FB607B681B68FA689A6080
:105400004CE07B6818683B6899683B685A683B6861
:10541000DB6800F06DFC7B681B689A687B681B6822
:1054200042F480429A6039E07B6818683B685968AA
:105430003B68DB681A4600F02BFB7B681B68502139
:10544000184600F03AFC29E07B6818683B68596808
:105450003B68DB681A4600F087FB7B681B686021AD
:10546000184600F02AFC19E07B6818683B68596808
:105470003B68DB681A4600F00BFB7B681B68402129
:10548000184600F01AFC09E07B681A683B681B6844
:105490001946104600F011FC00E000BF7B680122B5
:1054A00083F83D207B68002283F83C2000231846C7
:1054B0001037BD4680BD80B483B000AF786000BFB8
:1054C0000C37BD465DF8047B704780B483B000AFF5
:1054D000786000BF0C37BD465DF8047B704780B430
:1054E00083B000AF786000BF0C37BD465DF8047B29
:1054F000704780B483B000AF786000BF0C37BD4602
:105500005DF8047B7047000080B485B000AF786020
:1055100039607B681B68FB607B68404A934213D00C
:105520007B68B3F1804F0FD07B683D4A93420BD02C
:105530007B683C4A934207D07B683B4A934203D046
:105540007B683A4A934208D1FB6823F07003FB6002
:105550003B685B68FA681343FB607B682F4A9342A1
:105560002BD07B68B3F1804F27D07B682C4A9342C5
:1055700023D07B682B4A93421FD07B682A4A9342F0
:105580001BD07B68294A934217D07B68284A9342F4
:1055900013D07B68274A93420FD07B68264A9342F8
:1055A0000BD07B68254A934207D07B68244A9342FC
:1055B00003D07B68234A934208D1FB6823F44073ED
:1055C000FB603B68DB68FA681343FB60FB6823F011
:1055D00080023B685B691343FB607B68FA681A6072
:1055E0003B689A687B68DA623B681A687B689A62F3
:1055F0007B680A4A934203D07B680C4A934203D1EA
:105600003B681A697B681A637B6801225A6100BF94
:105610001437BD465DF8047B704700BF00000140B1
:105620000004004000080040000C0040000401405D
:105630000040014000440140004801400018004083
:10564000001C00400020004080B487B000AF7860AC
:1056500039607B681B6A23F001027B681A627B68F1
:105660001B6A7B617B685B683B617B689B69FB6055
:10567000FB6823F07003FB60FB6823F00303FB600F
:105680003B681B68FA681343FB607B6923F00203E5
:105690007B613B689B687A6913437B617B68204A26
:1056A000934203D07B681F4A93420CD17B6923F05D
:1056B00008037B613B68DB687A6913437B617B6924
:1056C00023F004037B617B68154A934203D07B6817
:1056D000144A934211D13B6923F480733B613B69C7
:1056E00023F400733B613B685B693A6913433B6198
:1056F0003B689B693A6913433B617B683A695A602E
:105700007B68FA689A613B685A687B685A637B6871
:105710007A691A6200BF1C37BD465DF8047B70478A
:10572000000001400004014080B487B000AF786001
:1057300039607B681B6A23F010027B681A627B6801
:105740001B6A7B617B685B683B617B689B69FB6074
:10575000FB6823F4E043FB60FB6823F44073FB60C9
:105760003B681B681B02FA681343FB607B6923F0EC
:1057700020037B613B689B681B017A6913437B6153
:105780007B68224A934203D07B68214A93420DD121
:105790007B6923F080037B613B68DB681B017A69CE
:1057A00013437B617B6923F040037B617B68174A6D
:1057B000934203D07B68164A934213D13B6923F48A
:1057C00080633B613B6923F400633B613B685B6939
:1057D0009B003A6913433B613B689B699B003A69B4
:1057E00013433B617B683A695A607B68FA689A6147
:1057F0003B685A687B689A637B687A691A6200BF63
:105800001C37BD465DF8047B704700BF00000140B7
:105810000004014080B487B000AF786039607B68D5
:105820001B6A23F480727B681A627B681B6A7B6147
:105830007B685B683B617B68DB69FB60FB6823F02E
:105840007003FB60FB6823F00303FB603B681B688D
:10585000FA681343FB607B6923F400737B613B6848
:105860009B681B027A6913437B617B68214A9342E0
:1058700003D07B68204A93420DD17B6923F40063F7
:105880007B613B68DB681B027A6913437B617B6940
:1058900023F480637B617B68164A934203D07B6864
:1058A000154A934213D13B6923F480533B613B6912
:1058B00023F400533B613B685B691B013A69134366
:1058C0003B613B689B691B013A6913433B617B6801
:1058D0003A695A607B68FA68DA613B685A687B68A3
:1058E000DA637B687A691A6200BF1C37BD465DF8CF
:1058F000047B7047000001400004014080B487B081
:1059000000AF786039607B681B6A23F480527B6843
:105910001A627B681B6A3B617B685B687B617B68A2
:10592000DB69FB60FB6823F4E043FB60FB6823F466
:105930004073FB603B681B681B02FA681343FB6003
:105940003B6923F400533B613B689B681B033A6946
:1059500013433B617B68124A934203D07B68114A30
:10596000934209D17B6923F480437B613B685B6987
:105970009B017A6913437B617B687A695A607B6813
:10598000FA68DA613B685A687B681A647B683A692E
:105990001A6200BF1C37BD465DF8047B704700BF2C
:1059A000000001400004014080B487B000AFF860FF
:1059B000B9607A603B60FB681B6A23F00102FB68F8
:1059C0001A62FB689B697B61FB681B6A3B61FB6831
:1059D000284A93421BD0FB68B3F1804F17D0FB6875
:1059E000254A934213D0FB68244A93420FD0FB68A8
:1059F000234A93420BD0FB68224A934207D0FB68AC
:105A0000214A934203D0FB68204A934201D10123EB
:105A100000E00023002B08D07B6923F003037B61A7
:105A20007A697B6813437B6103E07B6943F0010380
:105A30007B617B6923F0F0037B613B681B01DBB278
:105A40007A6913437B613B6923F00A033B61BB68BE
:105A500003F00A033A6913433B61FB687A699A6170
:105A6000FB683A691A6200BF1C37BD465DF8047BCB
:105A7000704700BF000001400004004000080040E3
:105A8000000C0040000401400040014000180040AC
:105A900080B487B000AFF860B9607A60FB681B6AB9
:105AA0007B61FB681B6A23F00102FB681A62FB68DA
:105AB0009B693B613B6923F0F0033B617B681B0101
:105AC0003A6913433B617B6923F00A037B617A697E
:105AD000BB6813437B61FB683A699A61FB687A692A
